:100000000C9462000C948A000C948A000C948A0070
:100010000C948A000C948A000C948A000C948A0038
:100020000C948A000C948A000C948A000C946E0440
:100030000C948A000C948A000C948A000C948A0018
:100040000C9424040C948A000C94F2030C94CC03BA
:100050000C948A000C948A000C948A000C948A00F8
:100060000C948A000C948A000000000024002700F1
:100070002A0000000000250028002B0000000000DE
:1000800023002600290004040404040404040202DA
:100090000202020203030303030301020408102007
:1000A0004080010204081020010204081020000012
:1000B0000008000201000003040700000000000027
:1000C0000000EF0611241FBECFEFD8E0DEBFCDBF8A
:1000D00011E0A0E0B1E0E2E6F1E102C005900D928E
:1000E000AA3AB107D9F722E0AAEAB1E001C01D920D
:1000F000AD35B207E1F710E0C2E6D0E004C02197C9
:10010000FE010E94A908C136D107C9F70E94E00488
:100110000C94AF080C940000AF92BF92CF92DF9284
:10012000EF92FF920F931F93CF93DF936C017B01AC
:100130008B01040F151FEB015E01AE18BF08C0173D
:10014000D10759F06991D601ED91FC910190F081B0
:10015000E02DC6010995892B79F7C501DF91CF9173
:100160001F910F91FF90EF90DF90CF90BF90AF90D5
:100170000895FC01538D448D252F30E0842F90E0AD
:10018000821B930B541710F0CF9608950197089592
:10019000FC01918D828D981761F0A28DAE0FBF2F5B
:1001A000B11D5D968C91928D9F5F9F73928F90E0B1
:1001B00008958FEF9FEF0895FC01918D828D981720
:1001C00031F0828DE80FF11D858D90E008958FEF5D
:1001D0009FEF0895FC01918D228D892F90E0805C26
:1001E0009F4F821B91098F73992708958BEB91E0A4
:1001F0000E94EA0021E0892B09F420E0822F089573
:1002000080E090E0892B29F00E94F60081110C9487
:1002100000000895FC01A48DA80FB92FB11DA35AA9
:10022000BF4F2C91848D90E001968F739927848F16
:10023000A689B7892C93A089B1898C918370806439
:100240008C93938D848D981306C00288F389E02DDA
:1002500080818F7D80830895EF92FF920F931F938B
:10026000CF93DF93EC0181E0888F9B8D8C8D981369
:100270001AC0E889F989808185FF15C09FB7F89475
:10028000EE89FF896083E889F989808183708064C1
:1002900080839FBF81E090E0DF91CF911F910F910C
:1002A000FF90EF900895F62E0B8D10E00F5F1F4F1B
:1002B0000F731127E02E8C8D8E110CC00FB607FC2A
:1002C000FACFE889F989808185FFF5CFCE010E94B8
:1002D0000A01F1CFEB8DEC0FFD2FF11DE35AFF4F1B
:1002E000F0829FB7F8940B8FEA89FB898081806246
:1002F000CFCFCF93DF93EC01888D8823B9F0AA8903
:10030000BB89E889F9898C9185FD03C0808186FDD0
:100310000DC00FB607FCF7CF8C9185FFF2CF80811F
:1003200085FFEDCFCE010E940A01E9CFDF91CF9189
:100330000895833081F028F4813099F08230A9F05B
:1003400008958730A9F08830C9F08430B1F48091E5
:1003500080008F7D03C0809180008F778093800024
:10036000089584B58F7784BD089584B58F7DFBCFC4
:100370008091B0008F778093B00008958091B00095
:100380008F7DF9CFCF93DF93282F30E0F901E2552D
:10039000FF4F8491F901E656FF4FD491F901EA57D6
:1003A000FF4FC491CC23A1F081110E949901EC2F41
:1003B000F0E0EE0FFF1FE458FF4FA591B491EC91D0
:1003C000ED2381E090E009F480E0DF91CF91089582
:1003D00080E090E0FACF1F93CF93DF93282F30E097
:1003E000F901E255FF4F8491F901E656FF4FD49190
:1003F000F901EA57FF4FC491CC23A9F0162F8111C0
:100400000E949901EC2FF0E0EE0FFF1FEE58FF4F16
:10041000A591B4918FB7F894EC91111108C0D095C3
:10042000DE23DC938FBFDF91CF911F910895DE2BE8
:10043000F8CFCF93DF9390E0FC01E656FF4F249175
:100440008A579F4FFC0184918823D1F090E0880F58
:10045000991FFC01E859FF4FA591B491FC01EE589A
:10046000FF4FC591D49161110EC09FB7F8948C9144
:10047000E22FE0958E238C932881E223E8839FBFAF
:10048000DF91CF9108958FB7F894EC91E22BEC9324
:100490008FBFF6CF8E3008F08E50877080648093C7
:1004A0007C0080917A00806480937A0080917A0049
:1004B00086FDFCCF809178009091790008953FB738
:1004C000F8948091B3019091B401A091B501B091DD
:1004D000B60126B5A89B05C02F3F19F00196A11DB6
:1004E000B11D3FBFBA2FA92F982F8827BC01CD017E
:1004F000620F711D811D911D42E0660F771F881FDD
:10050000991F4A95D1F708958F929F92AF92BF920B
:10051000CF92DF92EF92FF924B015C010E945F024B
:100520006B017C010E945F026C197D098E099F0995
:10053000683E734081059105A8F321E0821A910875
:10054000A108B10888EEC80E83E0D81EE11CF11C9A
:1005500081149104A104B10429F7FF90EF90DF907A
:10056000CF90BF90AF909F908F9008958091580248
:100570008111FCCF0895CF93DF93EC010E94B60266
:10058000A1E0B1E08DE018968C93189786E119965A
:100590008C931997E88123EA2E2730E1239FC0012D
:1005A0001124282730E0F0E084E0F595E7958A955E
:1005B000E1F7EB59FE4F80811A968C931A97E881E8
:1005C000EF70F0E0EB59FE4F80811B968C931B97E8
:1005D000922F88278964A90164E0559547956A950B
:1005E000E1F78427952773E0220F331F7A95E1F70F
:1005F0008227932780959095FC01C4E0F695E795B6
:10060000CA95E1F7EF70FF27EB59FE4F20811C964A
:100610002C931C97FC01EF70FF27EB59FE4F2081B4
:100620001D962C931D97FC01EF2FFF27E295EF708D
:10063000EB59FE4F20811E962C931E97E92FFF2722
:10064000EF70FF27EB59FE4F80811F968C9380E15E
:1006500080935C0210925B0210925A02109259022F
:1006600061E08AE00E94EB0181E080935802DF9113
:10067000CF910895FC0101900020E9F73197AF0177
:10068000481B590BBC018BEB91E00C948C008F92B2
:100690009F92AF92BF92CF92DF92EF92FF920F9311
:1006A0001F93CF93DF93CDB7DEB7A1970FB6F89422
:1006B000DEBF0FBECDBF6C01990FEE08FF08F7FE3D
:1006C00047C06DE28BEB91E00E942C018C01222748
:1006D0003327A9012C193D094E095F0919A2CE0142
:1006E00081967C019AE0892E912CA12CB12CCA0113
:1006F000B901A50194010E943B07605DF701629377
:100700007F01211531054105510589F790E080E011
:10071000309719F0CF010E943A03080F191F85E79F
:1007200091E00E943A03800F911FA1960FB6F894B2
:10073000DEBF0FBECDBFDF91CF911F910F91FF9014
:10074000EF90DF90CF90BF90AF909F908F900895E3
:10075000A701960119A28E010F5D1F4F8AE0C82ED6
:10076000D12CE12CF12CCA01B901A70196010E94FC
:100770003B07605DF80162938F012115310541054A
:10078000510589F7309729F0CF010E943A038C0177
:10079000C6CF10E000E0C3CF1F920F920FB60F92AA
:1007A00011242F933F934F935F936F937F938F9376
:1007B0009F93AF93BF93EF93FF938BEB91E00E94D6
:1007C0000A01FF91EF91BF91AF919F918F917F911E
:1007D0006F915F914F913F912F910F900FBE0F90AE
:1007E0001F9018951F920F920FB60F9211242F93FE
:1007F0008F939F93EF93FF93E091CB01F091CC0106
:100800008081E091D101F091D20182FD1BC09081E5
:100810008091D4018F5F8F732091D501821741F0B1
:10082000E091D401F0E0E554FE4F958F8093D40120
:10083000FF91EF919F918F912F910F900FBE0F908D
:100840001F9018958081F4CF1F920F920FB60F92D0
:1008500011242F933F938F939F93AF93BF938091D6
:10086000AF019091B001A091B101B091B20130916E
:10087000AE0123E0230F2D3758F50196A11DB11DC0
:100880002093AE018093AF019093B001A093B1018A
:10089000B093B2018091B3019091B401A091B501E0
:1008A000B091B6010196A11DB11D8093B301909343
:1008B000B401A093B501B093B601BF91AF919F91E0
:1008C0008F913F912F910F900FBE0F901F90189511
:1008D00026E8230F0296A11DB11DD2CF1F920F92C1
:1008E0000FB60F9211241F932F933F934F935F9353
:1008F0006F937F938F939F93AF93BF93CF93DF9328
:10090000EF93FF9380915802882319F18091590247
:1009100091E0980F9093590281111BC0C0915B0226
:100920001091000180915C02C81768F160E08AE0D4
:100930000E94EB0160E0812F0E94EB0110925802AF
:100940008091AC019091AD0101969093AD0180939F
:10095000AC0180915902883010F010925902FF9139
:10096000EF91DF91CF91BF91AF919F918F917F9147
:100970006F915F914F913F912F911F910F900FBEFB
:100980000F901F901895EC2FF0E0EF5FFE4F608105
:1009900020915A02D1E0D20FD0935A0281E090E028
:1009A00001C0880F2A95EAF76823812F0E94EB0186
:1009B000D630A8F210925A02CF5FC0935B02C9CF23
:1009C000CF93DF93CDB7DEB72E970FB6F894DEBF87
:1009D0000FBECDBF789484B5826084BD84B581603C
:1009E00084BD85B5826085BD85B5816085BD8091FA
:1009F0006E00816080936E00109281008091810072
:100A00008260809381008091810081608093810069
:100A1000809180008160809380008091B10084602B
:100A20008093B1008091B00081608093B00080918C
:100A30007A00846080937A0080917A00826080934B
:100A40007A0080917A00816080937A0080917A00A8
:100A5000806880937A001092C1008CE0809300013E
:100A60008EE0E5E4F1E0DE01119601900D928A95A9
:100A7000E1F77E0123E0E20EF11C11E0F701619144
:100A800071917F0190E080E00E9414089B01AC010D
:100A900060E074E284E79BE40E946C079B01AC0178
:100AA00060E070E080E89FE30E946C079B01AC016E
:100AB0006FE672E183E898E30E946C070E94DE070C
:100AC0004B015C01F2E08F1A9108A108B1082DEFEB
:100AD00082162FEF9206A104B10408F47CC11F5FB7
:100AE000173061F6623071058105910550F161158D
:100AF0007105E1E08E07910520F51092800028E055
:100B00002093810020918100122B1093810070931B
:100B100089006093880080916F00826080936F00ED
:100B200061E0809100010E94190260E08BE00E9468
:100B3000190261E08AE00E94190260E08AE00E94E6
:100B4000EB0160E089E00E94190260E088E00E9409
:100B5000190260E087E00E94190260E086E00E94CE
:100B6000190260E085E00E94190261E082E00E94C3
:100B7000190261E08CE00E941902E091CB01F09132
:100B8000CC0182E08083E091C701F091C80110821E
:100B9000E091C901F091CA018FEC80831092D301DA
:100BA000E091CF01F091D00186E08083E091CD010A
:100BB000F091CE01808180618083E091CD01F09140
:100BC000CE01808188608083E091CD01F091CE01DB
:100BD000808180688083E091CD01F091CE01808199
:100BE0008F7D8083CC24CA9483E0D82EE12CF12C15
:100BF00000E010E061E082E00E94EB0185E00E94ED
:100C00004A022FEF30E0DC010E94A208A701960102
:100C10000E941C073093BA012093B90188E791E044
:100C20000E943A038091B9019091BA010E94470352
:100C300083E00E944A022FEF30E0DC010E94A2080C
:100C4000A70196010E941C073093B8012093B701B9
:100C500081E891E00E943A038091B7019091B80138
:100C60000E9447038091B9019091BA0183339105A5
:100C7000F0F489E891E00E94BB020E94B60264EFA2
:100C800071E080E090E00E94840268EC70E080E017
:100C900090E00E9484020115110509F4ABCF0E9477
:100CA000F600882309F4A6CF0E940000A3CF9C0180
:100CB000225331092333310518F48BE891E0DBCF5F
:100CC0009C01245631092C34310518F48DE891E04B
:100CD000D2CF8F5A91098135910518F48FE891E0B0
:100CE000CACF8091B7019091B8018333910518F470
:100CF00081E991E0C0CF9C012253310923333105B2
:100D000018F483E991E0B7CF9C01245631092C34C3
:100D1000310518F485E991E0AECF8F5A91098135FC
:100D2000910518F487E991E0A6CF89E00E94C201FD
:100D3000019719F489E991E09ECF88E00E94C201F1
:100D4000019719F48BE991E096CF87E00E94C201E8
:100D5000019719F48DE991E08ECF86E00E94C201DF
:100D6000019719F48FE991E086CF87E00E94C201D4
:100D7000019741F489E00E94C201019719F481EAC8
:100D800091E079CF86E00E94C201019769F087E087
:100D90000E94C201019781F488E00E94C20101977C
:100DA00059F485EA91E067CF89E00E94C20101977A
:100DB00071F783EA91E05FCF86E00E94C20101975C
:100DC00009F063CF88E00E94C201019709F05DCF6E
:100DD00087EA91E050CF163009F4B3CE8ECEEBEB1C
:100DE000F1E01382128288EE93E0A0E0B0E0848309
:100DF0009583A683B78387E591E09183808385EC13
:100E000090E09587848784EC90E09787868780ECD4
:100E100090E0918B808B81EC90E0938B828B82ECC5
:100E200090E0958B848B86EC90E0978B868B118E6F
:100E3000128E138E148E0895052E97FB1EF40094C7
:100E40000E94330757FD07D00E943B0707FC03D0E1
:100E50004EF40C94330750954095309521953F4FB3
:100E60004F4F5F4F089590958095709561957F4F96
:100E70008F4F9F4F0895A1E21A2EAA1BBB1BFD01A5
:100E80000DC0AA1FBB1FEE1FFF1FA217B307E40769
:100E9000F50720F0A21BB30BE40BF50B661F771FC1
:100EA000881F991F1A9469F76095709580959095A1
:100EB0009B01AC01BD01CF010895A29FB001B39F7A
:100EC000C001A39F700D811D1124911DB29F700D53
:100ED000811D1124911D08950E9480070C946808BB
:100EE0000E94610858F00E945A0840F029F45F3FC0
:100EF00029F00C94510851110C949C080C9457083B
:100F00000E94790868F39923B1F3552391F3951B57
:100F1000550BBB27AA2762177307840738F09F5F1A
:100F20005F4F220F331F441FAA1FA9F335D00E2E87
:100F30003AF0E0E832D091505040E695001CCAF7F4
:100F40002BD0FE2F29D0660F771F881FBB1F2617B7
:100F500037074807AB07B0E809F0BB0B802DBF018E
:100F6000FF2793585F4F3AF09E3F510578F00C945D
:100F700051080C949C085F3FE4F3983ED4F38695A7
:100F800077956795B795F7959F5FC9F7880F911D7E
:100F90009695879597F90895E1E0660F771F881F6A
:100FA000BB1F621773078407BA0720F0621B730B1D
:100FB000840BBA0BEE1F88F7E09508950E94E507B1
:100FC0006894B1110C949C0808950E94810888F0DF
:100FD0009F5798F0B92F9927B751B0F0E1F0660FFD
:100FE000771F881F991F1AF0BA95C9F714C0B1303E
:100FF00091F00E949B08B1E008950C949B08672F24
:10100000782F8827B85F39F0B93FCCF3869577956C
:101010006795B395D9F73EF4909580957095619555
:101020007F4F8F4F9F4F0895E89409C097FB3EF480
:1010300090958095709561957F4F8F4F9F4F992325
:10104000A9F0F92F96E9BB279395F69587957795A3
:101050006795B795F111F8CFFAF4BB0F11F460FF63
:101060001BC06F5F7F4F8F4F9F4F16C0882311F0BB
:1010700096E911C0772321F09EE8872F762F05C0CF
:10108000662371F096E8862F70E060E02AF09A956A
:10109000660F771F881FDAF7880F9695879597F95F
:1010A000089597F99F6780E870E060E008959FEFEA
:1010B00080EC089500240A941616170618060906EF
:1010C000089500240A9412161306140605060895BE
:1010D000092E0394000C11F4882352F0BB0F40F446
:1010E000BF2B11F460FF04C06F5F7F4F8F4F9F4F86
:1010F000089557FD9058440F551F59F05F3F71F008
:101100004795880F97FB991F61F09F3F79F087956E
:101110000895121613061406551FF2CF4695F1DFF7
:1011200008C0161617061806991FF1CF8695710587
:10113000610508940895E894BB2766277727CB01BB
:1011400097F908950E945D07B7FF0895821B930BDE
:101150000895EE0FFF1F0590F491E02D0994F89487
:02116000FFCFBF
:101162000C2A2A2A2A2A2A382C0000000000000011
:10117200000000000000000000000000000000006D
:10118200000000000000000000000000000000005D
:10119200000000000000000000000000000000004D
:1011A20000000000000000010008004000000100F3
:1011B20004050D000000002C018C00B9007901EA41
:1011C20000C800DC000D0E131516191A1C23252663
:1011D200292A2C32340D0A005370656564203D20A3
:1011E20000466C6F77203D2000670068006A006B44
:1011F200007A007900780077006100620063006481
:0A12020000760070006F0069000024
:00000001FF
